{
  "contractName": "SmartContractV1",
  "abi": [
    {
      "anonymous": false,
      "inputs": [
        {
          "indexed": false,
          "internalType": "string",
          "name": "requestId",
          "type": "string"
        },
        {
          "indexed": false,
          "internalType": "string",
          "name": "submissionDate",
          "type": "string"
        },
        {
          "indexed": false,
          "internalType": "string",
          "name": "channelId",
          "type": "string"
        },
        {
          "indexed": false,
          "internalType": "string",
          "name": "name",
          "type": "string"
        },
        {
          "indexed": false,
          "internalType": "string",
          "name": "nik",
          "type": "string"
        }
      ],
      "name": "ItemCreated",
      "type": "event"
    },
    {
      "inputs": [
        {
          "internalType": "string",
          "name": "requestId",
          "type": "string"
        },
        {
          "internalType": "string",
          "name": "submissionDate",
          "type": "string"
        },
        {
          "internalType": "string",
          "name": "channelId",
          "type": "string"
        },
        {
          "internalType": "string",
          "name": "name",
          "type": "string"
        },
        {
          "internalType": "string",
          "name": "nik",
          "type": "string"
        }
      ],
      "name": "createItem",
      "outputs": [],
      "stateMutability": "nonpayable",
      "type": "function"
    },
    {
      "inputs": [
        {
          "internalType": "string",
          "name": "requestId",
          "type": "string"
        },
        {
          "internalType": "string",
          "name": "submissionDate",
          "type": "string"
        },
        {
          "internalType": "string",
          "name": "channelId",
          "type": "string"
        },
        {
          "internalType": "string",
          "name": "name",
          "type": "string"
        },
        {
          "internalType": "string",
          "name": "nik",
          "type": "string"
        }
      ],
      "name": "updateItem",
      "outputs": [],
      "stateMutability": "nonpayable",
      "type": "function"
    },
    {
      "inputs": [],
      "name": "getAllRequestIds",
      "outputs": [
        {
          "internalType": "string[]",
          "name": "",
          "type": "string[]"
        }
      ],
      "stateMutability": "view",
      "type": "function",
      "constant": true
    }
  ],
  "bytecode": "0x608060405234801561001057600080fd5b5061091d806100206000396000f3fe608060405234801561001057600080fd5b50600436106100415760003560e01c80638dd752d914610046578063ddc4b2d114610062578063ec1e6bd61461007e575b600080fd5b610060600480360381019061005b9190610468565b61009c565b005b61007c60048036038101906100779190610468565b610129565b005b610086610284565b604051610093919061069a565b60405180910390f35b600080866040516100ad9190610683565b90815260200160405180910390209050848160010190805190602001906100d592919061035d565b50838160020190805190602001906100ee92919061035d565b508281600301908051906020019061010792919061035d565b508181600401908051906020019061012092919061035d565b50505050505050565b6040518060a00160405280868152602001858152602001848152602001838152602001828152506000866040516101609190610683565b9081526020016040518091039020600082015181600001908051906020019061018a92919061035d565b5060208201518160010190805190602001906101a792919061035d565b5060408201518160020190805190602001906101c492919061035d565b5060608201518160030190805190602001906101e192919061035d565b5060808201518160040190805190602001906101fe92919061035d565b5090505060018590806001815401808255809150506001900390600052602060002001600090919091909150908051906020019061023d92919061035d565b507f1439eaaf09ede6c9a05feeeb72bd6067e763429ac4bbfd6a81569087b655e53085858585856040516102759594939291906106bc565b60405180910390a15050505050565b60606001805480602002602001604051908101604052809291908181526020016000905b828210156103545783829060005260206000200180546102c790610846565b80601f01602080910402602001604051908101604052809291908181526020018280546102f390610846565b80156103405780601f1061031557610100808354040283529160200191610340565b820191906000526020600020905b81548152906001019060200180831161032357829003601f168201915b5050505050815260200190600101906102a8565b50505050905090565b82805461036990610846565b90600052602060002090601f01602090048101928261038b57600085556103d2565b82601f106103a457805160ff19168380011785556103d2565b828001600101855582156103d2579182015b828111156103d15782518255916020019190600101906103b6565b5b5090506103df91906103e3565b5090565b5b808211156103fc5760008160009055506001016103e4565b5090565b600061041361040e84610763565b610732565b90508281526020810184848401111561042b57600080fd5b610436848285610804565b509392505050565b600082601f83011261044f57600080fd5b813561045f848260208601610400565b91505092915050565b600080600080600060a0868803121561048057600080fd5b600086013567ffffffffffffffff81111561049a57600080fd5b6104a68882890161043e565b955050602086013567ffffffffffffffff8111156104c357600080fd5b6104cf8882890161043e565b945050604086013567ffffffffffffffff8111156104ec57600080fd5b6104f88882890161043e565b935050606086013567ffffffffffffffff81111561051557600080fd5b6105218882890161043e565b925050608086013567ffffffffffffffff81111561053e57600080fd5b61054a8882890161043e565b9150509295509295909350565b600061056383836105e0565b905092915050565b6000610576826107a3565b61058081856107c6565b93508360208202850161059285610793565b8060005b858110156105ce57848403895281516105af8582610557565b94506105ba836107b9565b925060208a01995050600181019050610596565b50829750879550505050505092915050565b60006105eb826107ae565b6105f581856107d7565b9350610605818560208601610813565b61060e816108d6565b840191505092915050565b6000610624826107ae565b61062e81856107e8565b935061063e818560208601610813565b610647816108d6565b840191505092915050565b600061065d826107ae565b61066781856107f9565b9350610677818560208601610813565b80840191505092915050565b600061068f8284610652565b915081905092915050565b600060208201905081810360008301526106b4818461056b565b905092915050565b600060a08201905081810360008301526106d68188610619565b905081810360208301526106ea8187610619565b905081810360408301526106fe8186610619565b905081810360608301526107128185610619565b905081810360808301526107268184610619565b90509695505050505050565b6000604051905081810181811067ffffffffffffffff82111715610759576107586108a7565b5b8060405250919050565b600067ffffffffffffffff82111561077e5761077d6108a7565b5b601f19601f8301169050602081019050919050565b6000819050602082019050919050565b600081519050919050565b600081519050919050565b6000602082019050919050565b600082825260208201905092915050565b600082825260208201905092915050565b600082825260208201905092915050565b600081905092915050565b82818337600083830152505050565b60005b83811015610831578082015181840152602081019050610816565b83811115610840576000848401525b50505050565b6000600282049050600182168061085e57607f821691505b6020821081141561087257610871610878565b5b50919050565b7f4e487b7100000000000000000000000000000000000000000000000000000000600052602260045260246000fd5b7f4e487b7100000000000000000000000000000000000000000000000000000000600052604160045260246000fd5b6000601f19601f830116905091905056fea26469706673582212209b306451ceac77ae16d77a042da88b5ec6fe21837b077d554edff138396a435464736f6c63430008000033",
  "immutableReferences": {},
  "source": "// SPDX-License-Identifier: MIT\r\npragma solidity ^0.8.0;\r\n\r\ncontract SmartContractV1 {\r\n    struct Item {\r\n        string requestId;\r\n        string submissionDate;\r\n        string channelId;\r\n        string name;\r\n        string nik;\r\n    }\r\n\r\n    event ItemCreated (\r\n        string requestId,\r\n        string submissionDate,\r\n        string channelId,\r\n        string name,\r\n        string nik\r\n    );\r\n\r\n    mapping(string => Item) private items;\r\n    string[] private requestIdList;\r\n\r\n    function createItem(\r\n        string memory requestId,\r\n        string memory submissionDate,\r\n        string memory channelId,\r\n        string memory name,\r\n        string memory nik\r\n    ) public {\r\n        items[requestId] = Item(requestId, submissionDate, channelId, name, nik);\r\n        requestIdList.push(requestId);\r\n        emit ItemCreated(requestId, submissionDate, channelId, name, nik);\r\n    }\r\n\r\n    function updateItem(\r\n        string memory requestId,\r\n        string memory submissionDate,\r\n        string memory channelId,\r\n        string memory name,\r\n        string memory nik\r\n    ) public {\r\n        Item storage item = items[requestId];\r\n        item.submissionDate = submissionDate;\r\n        item.channelId = channelId;\r\n        item.name = name;\r\n        item.nik = nik;\r\n    }\r\n\r\n    function getAllRequestIds() public view returns (string[] memory) {\r\n        return requestIdList;\r\n    }\r\n}\r\n",
  "sourcePath": "C:\\Users\\900457\\Documents\\BNI\\Aplus\\smart-contract\\src\\main\\resources\\app-dataV2\\contracts\\SmartContractV1.sol",
  "compiler": {
    "name": "solc",
    "version": "0.8.0+commit.c7dfd78e.Emscripten.clang"
  },
  "schemaVersion": "3.4.14",
  "updatedAt": "2025-05-23T08:17:48.031Z",
  "networkType": "ethereum",
  "devdoc": {
    "kind": "dev",
    "methods": {},
    "version": 1
  },
  "userdoc": {
    "kind": "user",
    "methods": {},
    "version": 1
  }
}